:100000000C94F2000C941A010C941A010C941A012D
:100010000C941A010C941A010C941A010C941A01F4
:100020000C941A010C941A010C9435040C94A70436
:100030000C941A010C941A010C941A010C941A01D4
:100040000C941A010C941A010C941A010C941A01C4
:100050000C941A010C941A010C941A010C94B10717
:100060000C941A010C941A010C941A010C941A01A4
:100070000C941A010C941A010C941A010C941A0194
:100080000C941A010C941A010C941A010C941A0184
:100090000C941A010C941A010C941A010C941A0174
:1000A0000C941A010C941A010C941A015002530278
:1000B000420246024A0274027402740257025B0250
:1000C0005F026502690274026F02AE02B302B802F7
:1000D000C202CC02160316031603D602E002EA029D
:1000E000F4020103160309030000000200090F00D7
:1000F00000030401000C00000000000000000000EC
:1001000000000000000000080B00020202010009CC
:100110000400000102020000052400100105240172
:1001200001010424020605240600010705810310CD
:10013000004009040100020A000000070502024015
:1001400000000705830240000004030904120100B7
:1001500002EF020140412337800001010203014107
:10016000726475696E6F204C4C430041726475690E
:100170006E6F204D6963726F00000000002300263F
:100180000029002C002F0000000000250028002B73
:10019000002E00310000000000240027002A002D5E
:1001A00000300004040404040304050202020204F3
:1001B0000302020202060606060606040402020202
:1001C0000404040802011040804010204080408058
:1001D00008020401804020100201108010204040DD
:1001E0002000C20911241FBECFEFDAE0DEBFCDBF71
:1001F00011E0A0E0B1E0EEE7F4E102C005900D925D
:10020000AC33B107D9F721E0ACE3B1E001C01D92F6
:10021000A33BB207E1F710E0C2EFD0E004C02197A2
:10022000FE010E94320AC13FD107C9F70E9440086F
:100230000C943D0A0C94000040913E0150913F0106
:1002400020913C0130913D0142175307B4F4909145
:10025000E8009570E1F39091E80092FD19C0809359
:10026000F10080913E0190913F0101968F73992793
:10027000892B19F48EEF8093E80080913E019091D4
:100280003F01019690933F0180933E0181E00895E4
:1002900080E00895CF92DF92EF92FF920F931F9329
:1002A000CF93DF931F92CDB7DEB7182F062FE42E22
:1002B000862F880F8E5F99830E941C0183E00E9425
:1002C0001C01F12EC12E9981D92E8C2D8F198017EA
:1002D00098F4F601E7FE02C0849101C080810E947B
:1002E0001C01182F80E00E941C018123FFEFCF1A10
:1002F000DF0A8111EACF01C081E00F90DF91CF9139
:100300001F910F91FF90EF90DF90CF900895DF92B3
:10031000EF92FF920F931F93CF93DF93D82E8A0112
:100320007B01E40EF51EEB01CE15DF0571F0D7FE63
:1003300003C0FE01849101C088810E941C012196A6
:100340008111F2CF8FEF9FEF01C0C801DF91CF91F4
:100350001F910F91FF90EF90DF900895615030F062
:100360002091F100FC0120830196F8CF289A84E6C1
:1003700080939C010895CF92DF92EF92FF920F93AA
:100380001F93CF93DF936C017A018B01C0E0D0E023
:10039000CE15DF0589F0D8016D918D01D601ED9163
:1003A000FC910190F081E02DC6010995892B11F493
:1003B0007E0102C02196ECCFC701DF91CF911F9142
:1003C0000F91FF90EF90DF90CF900895CF93DF9340
:1003D0001F92CDB7DEB76983DC01ED91FC910280FD
:1003E000F381E02D41E050E0BE016F5F7F4F099542
:1003F0000F90DF91CF91089583E08093E900809181
:10040000F200882319F08AE38093E8000895FC0144
:100410008485958597FD0BC09FB7F89482E0809303
:10042000E9008091F2009FBF90E0019608959FB788
:10043000F89482E08093E9008091F2009FBF90E001
:100440000895089580E090E00895362F90E0FC0133
:10045000E851FF4F4491FC01EE53FE4F2491FC0103
:10046000ED55FE4F8491882309F451C04423E1F1F6
:1004700050E0FA013197EF30F105B0F5EA5AFF4F3D
:100480000C94320A909180009F7707C09091800071
:100490009F7D03C090918000977F9093800024C03F
:1004A00094B59F7702C094B59F7D94BD1DC0909177
:1004B00090009F7707C0909190009F7D03C090911E
:1004C0009000977F909390000FC09091C0009F770D
:1004D00003C09091C0009F7D9093C00005C0909193
:1004E000C200977F9093C200E82FF0E0EE0FFF1F4D
:1004F000E957FE4FA591B4918FB7F894EC91311163
:1005000003C020952E2301C02E2B2C938FBF08955E
:100510001F93CF93DF93182FEB010E94FC062097C7
:1005200011F460E004C0CF3FD10539F461E0812FC0
:10053000DF91CF911F910C942502E12FF0E0E8515B
:10054000FF4FE4914E2F50E0FA013197EF30F10563
:1005500008F06CC0EB59FF4F0C94320A84B58068E8
:1005600084BDC7BD68C084B5806284BDC8BD63C09A
:1005700080918000806880938000D0938900C09330
:10058000880059C080918000806280938000D09361
:100590008B00C0938A004FC0809180008860809358
:1005A0008000D0938D00C0938C0045C08091900056
:1005B000806880939000D0939900C09398003BC0CE
:1005C00080919000806280939000D0939B00C093B4
:1005D0009A0031C080919000886080939000D09301
:1005E0009D00C0939C0027C08091C00080688093CC
:1005F000C0008091C0008F7B8093C000C093CF006B
:100600001AC08091C00080628093C000C093D00067
:1006100012C08091C20088608093C2008091C200A5
:100620008B7F8093C200C093D20005C0C038D10533
:100630000CF07CCF76CFDF91CF911F910895CF93AF
:10064000C62F813031F460E084E00E94250261E031
:1006500009C0823011F461E001C060E084E00E94D2
:10066000250260E089E00E9425026C2F70E086E0A0
:10067000CF910C9488020E94380A0F931F93CF9356
:10068000DF931F92CDB7DEB782E0898342E450E06A
:1006900067E071E080E80E9487010E949D07DC010D
:1006A00012960D911C9113970115110569F0D8014F
:1006B000ED91FC910280F381E02DBE016F5F7F4FD1
:1006C000C801099597FF07C089810F90DF91CF91ED
:1006D0001F910F910895F80100851185E5CF8F9244
:1006E0009F92AF92BF92CF92DF92EF92FF920F93C1
:1006F0001F93CF93DF936C015B017A0180910B0113
:10070000882309F456C080919D01882309F451C0C3
:100710008091420180FF05C08091E000826080935B
:10072000E000E70110E00AEF83E0882E9AE3992EBB
:100730002097B1F10E947207811105C00150C9F1E3
:100740000E948307F5CF282F30E0C217D3070CF49F
:100750008C2F4FB7F8948092E9009091E80095FFB4
:100760001DC0282F30E0C21BD30BF501982F9150EC
:1007700020F081918093F100FACFA20EB31E1123D5
:1007800019F09092E80009C08091E80085FD06C04C
:100790009092E80011E0209709F010E04FBFC8CF19
:1007A0001111C8CF5D9A84E6809340011E141F0486
:1007B00044F081E090E0F6019383828380E090E052
:1007C00001C0C701DF91CF911F910F91FF90EF9072
:1007D000DF90CF90BF90AF909F908F9008950E9430
:1007E000720790E00895CF93DF931F92CDB7DEB7E5
:1007F000FC018485958597FD05C02FEF3FEF358778
:1008000024870BC0CE0101960E944807019719F476
:10081000898190E002C08FEF9FEF0F90DF91CF9121
:1008200008950F931F93CF93DF931F92CDB7DEB739
:100830008C01FC018485958597FF0EC0CE01019641
:100840000E944807019719F4298130E002C02FEF78
:100850003FEFF80135872487F801848595850F904F
:10086000DF91CF911F910F9108951F920F920FB6B4
:100870000F9211248F939F938091E1009091E1005A
:10088000937F9093E10083FF0FC01092E90091E005
:100890009093EB001092EC0092E39093ED00109295
:1008A0009D0198E09093F00082FF20C093E0909328
:1008B000E9009091F200992319F09AE39093E800EF
:1008C00090914001992339F090914001915090937B
:1008D0004001992389F190919C01992339F09091DD
:1008E0009C01915090939C01992341F184FF10C089
:1008F0008091E2008E7E81608093E2008091E10031
:100900008F7E8093E100809142018E7E806111C0D4
:1009100080FF16C08091E2008E7E80618093E200AD
:100920008091E1008E7E8093E100809142018E7E75
:1009300081608093420104C05D98CDCF2898D6CFC6
:100940009F918F910F900FBE0F901F9018951F923F
:100950000F920FB60F921124CF92DF92EF92FF9277
:100960000F931F932F933F934F935F936F937F93B7
:100970008F939F93AF93BF93EF93FF93CF93DF93A7
:10098000CDB7DEB76C97DEBFCDBF1092E900809186
:10099000E80083FFEDC168E0CE0145960E94AE01FC
:1009A00082EF8093E8008D8987FF05C09091E80071
:1009B00090FFFCCF03C09EEF9093E800982F9076B5
:1009C00009F0C6C09E892F89188D91110CC08038FE
:1009D00029F4809143018093F10002C01092F1004C
:1009E0001092F10048C1422F50E0512B913051F448
:1009F000811141C14130510509F03DC18091430150
:100A00008D7F0BC0933061F4811135C141305105A8
:100A100009F031C1809143018260809343012BC171
:100A2000953041F48091E80080FFFCCF206820934E
:100A3000E30021C1963009F05FC0EB8CFC8C109272
:100A4000E90010923F0110923E01123091F5109290
:100A50003D0110923C010E943D0399E0BE016F5F91
:100A60007F4FDB01E92F1D92EA95E9F799831A83FD
:100A700091E09E8390EA98879AEF998720913E01B2
:100A800030913F01275F3F4F3C832B838D83109232
:100A9000E90010923F0110923E01F0923D01E09278
:100AA0003C0149E050E080E00E9487010E943D0344
:100AB000E2C0F0923D01E0923C010E949D07DC0102
:100AC0001296ED90FC901397E114F10409F4C0C064
:100AD000D701ED91FC910480F581E02DBE016B5EA4
:100AE0007F4FC7010995009719F00CF0C4C0C7C02B
:100AF000F701E084F184E8CF973009F4C0C0983062
:100B000021F481E08093F100B6C0993009F0B3C0C0
:100B1000837009F0B4C0EFE1F1E081E021E036E359
:100B20009081992361F08093E9002093EB009191EB
:100B30009093EC003093ED008F5F873089F78EE75C
:100B40008093EA001092EA008F8980939D0193C000
:100B50008B8D9C8D1092E90010923F0110923E0106
:100B600090933D0180933C01898D811156C08E89FF
:100B70009D89913A59F4813209F081C047E050E0F3
:100B800064E071E080E00E94870175C0913209F055
:100B900076C0833289F4888D90E0982F88272F893A
:100BA000822BA0E0B0E08093000190930101A0931C
:100BB0000201B09303015FC0803269F48091E800C4
:100BC00082FFFCCF67E084E091E00E94AE018BEFF2
:100BD0008093E80006C0823209F04DC08F8980936F
:100BE0000B0180914101882319F0EEEFFAE002C079
:100BF000E0E0F8E08091040190910501A0910601E8
:100C0000B0910701803B9440A105B10509F07BC07C
:100C100080910B0180FF93C076C00E949D07DC018C
:100C200012960D911C9113970115110541F1D801F0
:100C3000ED91FC910190F081E02DBE016B5E7F4F44
:100C4000C8010995811117C0F80100851185ECCF05
:100C5000113009F44EC0133091F48F89882309F4C0
:100C600045C0823081F440E86DE08BE691E00E945F
:100C70004A01882321F08EEF8093E80079C081E259
:100C80008093EB0075C0813029F440E86BE08FE57C
:100C900091E0EDCF833099F70E949D07DC01129619
:100CA000ED90FC9013978E010F5F1F4F6801E114C8
:100CB000F10479F0D701ED91FC910680F781E02DE8
:100CC000B801C7010995080F111DF701E084F184EF
:100CD000EECFD8011C92F60101900020E9F7319780
:100CE000BF016C197D0940E0C601C1CF69E471E024
:100CF00002C06DE471E06115710509F2FB014491D8
:100D000050E080E840CF0FB6F894A895809160003D
:100D1000886180936000109260000FBEA895EE3F3E
:100D20002AE0F20739F08091FE0A9091FF0A918340
:100D30008083A1CF1092FF0A1092FE0A9CCFEE3F53
:100D40008AE0F80731F0808191819093FF0A8093C7
:100D5000FE0A87E797E7918380839BE088E10FB6DF
:100D6000F894A895809360000FBE9093600083CFA5
:100D70006C960FB6F894DEBF0FBECDBFDF91CF915A
:100D8000FF91EF91BF91AF919F918F917F916F9163
:100D90005F914F913F912F911F910F91FF90EF9095
:100DA000DF90CF900F900FBE0F901F9018953FB718
:100DB000F8948091A3019091A401A091A501B09114
:100DC000A60126B5A89B05C02F3F19F00196A11DCD
:100DD000B11D3FBFBA2FA92F982F8827820F911DD1
:100DE000A11DB11DBC01CD0142E0660F771F881F18
:100DF000991F4A95D1F7089590E0FC01EE53FE4FFC
:100E00002491FC01ED55FE4F8491882399F090E0E8
:100E1000880F991FFC01EB56FE4FA591B491FC0180
:100E2000E957FE4F859194918FB7F894EC91E22B9E
:100E3000EC938FBF08950F931F9390E0FC01EE5346
:100E4000FE4F6491FC01ED55FE4FE491F0E0EE0F92
:100E5000FF1FE758FE4F8591949100E412E42FE0C4
:100E600030E0462F0E94FB07611571058105910551
:100E700049F0DC01CB010196A11DB11DBC01CD01E2
:100E80009F7003C060E070E0CB011F910F91089547
:100E9000FC0180919D01811103C08FEF9FEF0895A8
:100EA0009FB7F89482E08093E9002091F20030E04F
:100EB0001216130614F421E030E02115310559F023
:100EC000289A84E680939C018091F1008083809130
:100ED000F200882319F09FBFC90108958BE6809323
:100EE000E800F9CF2FB7F89483E08093E900909160
:100EF000E800892F807295FF04C09091F20080E491
:100F0000891B2FBF0895CF92DF92EF92FF920E942C
:100F1000D7066B017C010E94D706DC01CB018C193E
:100F20009D09AE09BF09883E9340A105B10598F31C
:100F3000FF90EF90DF90CF9008958091AB018111E9
:100F40000DC082E08093A70184E08093A8011092F5
:100F5000AA011092A90181E08093AB0187EA91E098
:100F600008951F920F920FB60F9211242F933F9363
:100F70008F939F93AF93BF9380919F019091A00116
:100F8000A091A101B091A20130919E0123E0230F15
:100F90002D3720F40196A11DB11D05C026E8230FB1
:100FA0000296A11DB11D20939E0180939F019093F5
:100FB000A001A093A101B093A2018091A3019091FF
:100FC000A401A091A501B091A6010196A11DB11D9A
:100FD0008093A3019093A401A093A501B093A601CF
:100FE000BF91AF919F918F913F912F910F900FBE25
:100FF0000F901F901895CF92DF92EF92FF920F9370
:101000001F93E82FF92F05C001501109210931095B
:1010100061F1908196239417B9F305C0015011092D
:101020002109310911F1908196239413F7CFC12C36
:10103000D12CE12CF12C0AC08FEFC81AD80AE80A8B
:10104000F80A0C151D052E053F0579F080818623D1
:10105000841791F36C2D7D2D8E2D9F2D1F910F9157
:10106000FF90EF90DF90CF90089560E070E080E017
:1010700090E01F910F91FF90EF90DF90CF90089537
:10108000789484B5826084BD84B5816084BD85B563
:10109000826085BD85B5816085BD80916E0081606F
:1010A00080936E0010928100809181008260809315
:1010B0008100809181008160809381008091800017
:1010C0008160809380008091910082608093910084
:1010D0008091910081608093910080919000816067
:1010E000809390008091C10084608093C1008091C2
:1010F000C10082608093C1008091C10081608093B3
:10110000C1008091C30081608093C3008091C000C2
:1011100082608093C0008091C20081608093C20091
:1011200080917A00846080937A0080917A00826056
:1011300080937A0080917A00816080937A00809118
:101140007A00806880937A0010929D01109243018A
:10115000109242018091D70081608093D70080EA8D
:101160008093D80089B5806189BD89B5826089BDC9
:1011700009B400FEFDCF0E9483078091D8008F7CC8
:1011800080618093D8008091E000807F8093E000B0
:101190008091E1008E7E8093E1008DE08093E200FB
:1011A000559A209A5D982898EEEFFFE785919491E3
:1011B0008B3F9C4D19F481E08093410187E00E94B0
:1011C000FC0688E00E94FC0684E00E94FC0689E0A0
:1011D0000E94FC0685E00E94FC0686E00E94FC0658
:1011E00084E10E94FC0685E10E94FC0682E10E94E7
:1011F000FC0683E10E94FC068FEF9FEF9093510164
:1012000080935001E0914401F09145010280F38107
:10121000E02D43E150E065E271E084E491E009955E
:10122000E0914401F09145010280F381E02D42E01C
:1012300050E069E371E084E491E0099582ECC82E06
:101240008CEFD82EEE24EA94FE2C00E010E086E12C
:101250000E941B0770939B0160939A0187E10E9493
:101260001B07709399016093980188E10E941B0706
:10127000709397016093960189E10E941B07709318
:101280009501609394012091960130919701C901D5
:10129000330FAA0BBB0B9C01AD0126573740410908
:1012A0005109AFEFB0E00E94F609A70196010E9434
:1012B000D709C22F80919801909199019C012357E1
:1012C0003540293C3105C0F420919A0130919B01B1
:1012D00023573540293C310578F460E087E00E94CF
:1012E000250261E088E00E94250260E070E085E070
:1012F0000E94880260E03CC08B3326E0920734F005
:1013000060E087E00E94250261E029C084379540B3
:1013100034F461E087E00E94250260E00DC0809116
:101320009A0190919B018B3326E0920784F060E054
:1013300087E00E94250261E088E00E9425026C2F70
:1013400070E085E00E9488026C2F82E012C0843732
:1013500095408CF461E087E00E94250260E088E01F
:101360000E9425026C2F70E085E00E9488026C2F9D
:1013700081E00E941F030115110509F468CF0E9446
:10138000000065CFE4E4F1E01382128288EE93E07E
:10139000A0E0B0E084839583A683B78380E191E0E9
:1013A000918380838FEF9FEF958784870895052E23
:1013B00097FB1EF400940E94EE0957FD07D00E948F
:1013C000010A07FC03D04EF40C94EE0950954095A9
:1013D000309521953F4F4F4F5F4F089590958095E1
:1013E000709561957F4F8F4F9F4F08950E94230AFC
:1013F000A59F900DB49F900DA49F800D911D112469
:101400000895A1E21A2EAA1BBB1BFD010DC0AA1F45
:10141000BB1FEE1FFF1FA217B307E407F50720F05D
:10142000A21BB30BE40BF50B661F771F881F991FD8
:101430001A9469F760957095809590959B01AC0121
:10144000BD01CF010895A29FB001B39FC001A39F2A
:10145000700D811D1124911DB29F700D811D1124ED
:10146000911D0895EE0FFF1F0590F491E02D099452
:0E14700081E090E0F8940C943D0AF894FFCFD0
:10147E00FFFFFFFF00E10000000000000000000081
:10148E00E6016F03EF03FC010702F303110400C131
:10149E008081000000426567696E206D6F746F7207
:0C14AE0020636F6E74726F6C000D0A00FA
:00000001FF
